{
  "contracts/utils/SigilMath.sol": {
    "SigilMath": {
      "abi": [
        {
          "inputs": [
            {
              "internalType": "uint256",
              "name": "min",
              "type": "uint256"
            },
            {
              "internalType": "uint256",
              "name": "max",
              "type": "uint256"
            }
          ],
          "name": "getPercent",
          "outputs": [
            {
              "internalType": "uint256",
              "name": "",
              "type": "uint256"
            }
          ],
          "stateMutability": "pure",
          "type": "function"
        }
      ],
      "evm": {
        "bytecode": {
          "linkReferences": {},
          "object": "61017761003a600b82828239805160001a60731461002d57634e487b7160e01b600052600060045260246000fd5b30600052607381538281f3fe73000000000000000000000000000000000000000030146080604052600436106100355760003560e01c8063622198661461003a575b600080fd5b61004d6100483660046100b0565b61005f565b60405190815260200160405180910390f35b6000610085600a610079600561007f8683896103e861008c565b90610098565b906100a4565b9392505050565b600061008582846100e8565b60006100858284610107565b60006100858284610129565b600080604083850312156100c357600080fd5b50508035926020909101359150565b634e487b7160e01b600052601160045260246000fd5b6000816000190483118215151615610102576101026100d2565b500290565b60008261012457634e487b7160e01b600052601260045260246000fd5b500490565b6000821982111561013c5761013c6100d2565b50019056fea2646970667358221220041eb7ae253c42c856f4afd42d313244a529bafca039f85697e80b3286c80e3e64736f6c63430008090033",
          "opcodes": "PUSH2 0x177 PUSH2 0x3A PUSH1 0xB DUP3 DUP3 DUP3 CODECOPY DUP1 MLOAD PUSH1 0x0 BYTE PUSH1 0x73 EQ PUSH2 0x2D JUMPI PUSH4 0x4E487B71 PUSH1 0xE0 SHL PUSH1 0x0 MSTORE PUSH1 0x0 PUSH1 0x4 MSTORE PUSH1 0x24 PUSH1 0x0 REVERT JUMPDEST ADDRESS PUSH1 0x0 MSTORE PUSH1 0x73 DUP2 MSTORE8 DUP3 DUP2 RETURN INVALID PUSH20 0x0 ADDRESS EQ PUSH1 0x80 PUSH1 0x40 MSTORE PUSH1 0x4 CALLDATASIZE LT PUSH2 0x35 JUMPI PUSH1 0x0 CALLDATALOAD PUSH1 0xE0 SHR DUP1 PUSH4 0x62219866 EQ PUSH2 0x3A JUMPI JUMPDEST PUSH1 0x0 DUP1 REVERT JUMPDEST PUSH2 0x4D PUSH2 0x48 CALLDATASIZE PUSH1 0x4 PUSH2 0xB0 JUMP JUMPDEST PUSH2 0x5F JUMP JUMPDEST PUSH1 0x40 MLOAD SWAP1 DUP2 MSTORE PUSH1 0x20 ADD PUSH1 0x40 MLOAD DUP1 SWAP2 SUB SWAP1 RETURN JUMPDEST PUSH1 0x0 PUSH2 0x85 PUSH1 0xA PUSH2 0x79 PUSH1 0x5 PUSH2 0x7F DUP7 DUP4 DUP10 PUSH2 0x3E8 PUSH2 0x8C JUMP JUMPDEST SWAP1 PUSH2 0x98 JUMP JUMPDEST SWAP1 PUSH2 0xA4 JUMP JUMPDEST SWAP4 SWAP3 POP POP POP JUMP JUMPDEST PUSH1 0x0 PUSH2 0x85 DUP3 DUP5 PUSH2 0xE8 JUMP JUMPDEST PUSH1 0x0 PUSH2 0x85 DUP3 DUP5 PUSH2 0x107 JUMP JUMPDEST PUSH1 0x0 PUSH2 0x85 DUP3 DUP5 PUSH2 0x129 JUMP JUMPDEST PUSH1 0x0 DUP1 PUSH1 0x40 DUP4 DUP6 SUB SLT ISZERO PUSH2 0xC3 JUMPI PUSH1 0x0 DUP1 REVERT JUMPDEST POP POP DUP1 CALLDATALOAD SWAP3 PUSH1 0x20 SWAP1 SWAP2 ADD CALLDATALOAD SWAP2 POP JUMP JUMPDEST PUSH4 0x4E487B71 PUSH1 0xE0 SHL PUSH1 0x0 MSTORE PUSH1 0x11 PUSH1 0x4 MSTORE PUSH1 0x24 PUSH1 0x0 REVERT JUMPDEST PUSH1 0x0 DUP2 PUSH1 0x0 NOT DIV DUP4 GT DUP3 ISZERO ISZERO AND ISZERO PUSH2 0x102 JUMPI PUSH2 0x102 PUSH2 0xD2 JUMP JUMPDEST POP MUL SWAP1 JUMP JUMPDEST PUSH1 0x0 DUP3 PUSH2 0x124 JUMPI PUSH4 0x4E487B71 PUSH1 0xE0 SHL PUSH1 0x0 MSTORE PUSH1 0x12 PUSH1 0x4 MSTORE PUSH1 0x24 PUSH1 0x0 REVERT JUMPDEST POP DIV SWAP1 JUMP JUMPDEST PUSH1 0x0 DUP3 NOT DUP3 GT ISZERO PUSH2 0x13C JUMPI PUSH2 0x13C PUSH2 0xD2 JUMP JUMPDEST POP ADD SWAP1 JUMP INVALID LOG2 PUSH5 0x6970667358 0x22 SLT KECCAK256 DIV 0x1E 0xB7 0xAE 0x25 EXTCODECOPY TIMESTAMP 0xC8 JUMP DELEGATECALL 0xAF 0xD4 0x2D BALANCE ORIGIN DIFFICULTY 0xA5 0x29 0xBA 0xFC LOG0 CODECOPY 0xF8 JUMP SWAP8 0xE8 SIGNEXTEND ORIGIN DUP7 0xC8 0xE RETURNDATACOPY PUSH5 0x736F6C6343 STOP ADDMOD MULMOD STOP CALLER "
        },
        "methodIdentifiers": {
          "getPercent(uint256,uint256)": "62219866"
        }
      },
      "storageLayout": {
        "storage": [],
        "types": null
      }
    }
  }
}