{
  "_format": "hh-sol-artifact-1",
  "contractName": "SigilToken",
  "sourceName": "contracts/SigilToken.sol",
  "abi": [
    {
      "anonymous": false,
      "inputs": [
        {
          "indexed": true,
          "internalType": "address",
          "name": "owner",
          "type": "address"
        },
        {
          "indexed": true,
          "internalType": "address",
          "name": "spender",
          "type": "address"
        },
        {
          "indexed": false,
          "internalType": "uint256",
          "name": "value",
          "type": "uint256"
        }
      ],
      "name": "Approval",
      "type": "event"
    },
    {
      "anonymous": false,
      "inputs": [
        {
          "indexed": true,
          "internalType": "address",
          "name": "delegator",
          "type": "address"
        },
        {
          "indexed": true,
          "internalType": "address",
          "name": "fromDelegate",
          "type": "address"
        },
        {
          "indexed": true,
          "internalType": "address",
          "name": "toDelegate",
          "type": "address"
        }
      ],
      "name": "DelegateChanged",
      "type": "event"
    },
    {
      "anonymous": false,
      "inputs": [
        {
          "indexed": true,
          "internalType": "address",
          "name": "delegate",
          "type": "address"
        },
        {
          "indexed": false,
          "internalType": "uint256",
          "name": "previousBalance",
          "type": "uint256"
        },
        {
          "indexed": false,
          "internalType": "uint256",
          "name": "newBalance",
          "type": "uint256"
        }
      ],
      "name": "DelegateVotesChanged",
      "type": "event"
    },
    {
      "anonymous": false,
      "inputs": [
        {
          "indexed": true,
          "internalType": "address",
          "name": "previousOwner",
          "type": "address"
        },
        {
          "indexed": true,
          "internalType": "address",
          "name": "newOwner",
          "type": "address"
        }
      ],
      "name": "OwnershipTransferred",
      "type": "event"
    },
    {
      "anonymous": false,
      "inputs": [
        {
          "indexed": true,
          "internalType": "address",
          "name": "from",
          "type": "address"
        },
        {
          "indexed": true,
          "internalType": "address",
          "name": "to",
          "type": "address"
        },
        {
          "indexed": false,
          "internalType": "uint256",
          "name": "value",
          "type": "uint256"
        }
      ],
      "name": "Transfer",
      "type": "event"
    },
    {
      "inputs": [],
      "name": "DELEGATION_TYPEHASH",
      "outputs": [
        {
          "internalType": "bytes32",
          "name": "",
          "type": "bytes32"
        }
      ],
      "stateMutability": "view",
      "type": "function"
    },
    {
      "inputs": [],
      "name": "DOMAIN_TYPEHASH",
      "outputs": [
        {
          "internalType": "bytes32",
          "name": "",
          "type": "bytes32"
        }
      ],
      "stateMutability": "view",
      "type": "function"
    },
    {
      "inputs": [
        {
          "internalType": "address",
          "name": "owner",
          "type": "address"
        },
        {
          "internalType": "address",
          "name": "spender",
          "type": "address"
        }
      ],
      "name": "allowance",
      "outputs": [
        {
          "internalType": "uint256",
          "name": "",
          "type": "uint256"
        }
      ],
      "stateMutability": "view",
      "type": "function"
    },
    {
      "inputs": [
        {
          "internalType": "address",
          "name": "spender",
          "type": "address"
        },
        {
          "internalType": "uint256",
          "name": "amount",
          "type": "uint256"
        }
      ],
      "name": "approve",
      "outputs": [
        {
          "internalType": "bool",
          "name": "",
          "type": "bool"
        }
      ],
      "stateMutability": "nonpayable",
      "type": "function"
    },
    {
      "inputs": [
        {
          "internalType": "address",
          "name": "account",
          "type": "address"
        }
      ],
      "name": "balanceOf",
      "outputs": [
        {
          "internalType": "uint256",
          "name": "",
          "type": "uint256"
        }
      ],
      "stateMutability": "view",
      "type": "function"
    },
    {
      "inputs": [
        {
          "internalType": "address",
          "name": "",
          "type": "address"
        },
        {
          "internalType": "uint32",
          "name": "",
          "type": "uint32"
        }
      ],
      "name": "checkpoints",
      "outputs": [
        {
          "internalType": "uint32",
          "name": "fromBlock",
          "type": "uint32"
        },
        {
          "internalType": "uint256",
          "name": "votes",
          "type": "uint256"
        }
      ],
      "stateMutability": "view",
      "type": "function"
    },
    {
      "inputs": [],
      "name": "decimals",
      "outputs": [
        {
          "internalType": "uint8",
          "name": "",
          "type": "uint8"
        }
      ],
      "stateMutability": "view",
      "type": "function"
    },
    {
      "inputs": [
        {
          "internalType": "address",
          "name": "spender",
          "type": "address"
        },
        {
          "internalType": "uint256",
          "name": "subtractedValue",
          "type": "uint256"
        }
      ],
      "name": "decreaseAllowance",
      "outputs": [
        {
          "internalType": "bool",
          "name": "",
          "type": "bool"
        }
      ],
      "stateMutability": "nonpayable",
      "type": "function"
    },
    {
      "inputs": [
        {
          "internalType": "address",
          "name": "delegatee",
          "type": "address"
        }
      ],
      "name": "delegate",
      "outputs": [],
      "stateMutability": "nonpayable",
      "type": "function"
    },
    {
      "inputs": [
        {
          "internalType": "address",
          "name": "delegatee",
          "type": "address"
        },
        {
          "internalType": "uint256",
          "name": "nonce",
          "type": "uint256"
        },
        {
          "internalType": "uint256",
          "name": "expiry",
          "type": "uint256"
        },
        {
          "internalType": "uint8",
          "name": "v",
          "type": "uint8"
        },
        {
          "internalType": "bytes32",
          "name": "r",
          "type": "bytes32"
        },
        {
          "internalType": "bytes32",
          "name": "s",
          "type": "bytes32"
        }
      ],
      "name": "delegateBySig",
      "outputs": [],
      "stateMutability": "nonpayable",
      "type": "function"
    },
    {
      "inputs": [
        {
          "internalType": "address",
          "name": "delegator",
          "type": "address"
        }
      ],
      "name": "delegates",
      "outputs": [
        {
          "internalType": "address",
          "name": "",
          "type": "address"
        }
      ],
      "stateMutability": "view",
      "type": "function"
    },
    {
      "inputs": [
        {
          "internalType": "address",
          "name": "account",
          "type": "address"
        }
      ],
      "name": "getCurrentVotes",
      "outputs": [
        {
          "internalType": "uint256",
          "name": "",
          "type": "uint256"
        }
      ],
      "stateMutability": "view",
      "type": "function"
    },
    {
      "inputs": [
        {
          "internalType": "address",
          "name": "account",
          "type": "address"
        },
        {
          "internalType": "uint256",
          "name": "blockNumber",
          "type": "uint256"
        }
      ],
      "name": "getPriorVotes",
      "outputs": [
        {
          "internalType": "uint256",
          "name": "",
          "type": "uint256"
        }
      ],
      "stateMutability": "view",
      "type": "function"
    },
    {
      "inputs": [
        {
          "internalType": "address",
          "name": "spender",
          "type": "address"
        },
        {
          "internalType": "uint256",
          "name": "addedValue",
          "type": "uint256"
        }
      ],
      "name": "increaseAllowance",
      "outputs": [
        {
          "internalType": "bool",
          "name": "",
          "type": "bool"
        }
      ],
      "stateMutability": "nonpayable",
      "type": "function"
    },
    {
      "inputs": [],
      "name": "maxSupply",
      "outputs": [
        {
          "internalType": "uint256",
          "name": "",
          "type": "uint256"
        }
      ],
      "stateMutability": "view",
      "type": "function"
    },
    {
      "inputs": [
        {
          "internalType": "address",
          "name": "_to",
          "type": "address"
        },
        {
          "internalType": "uint256",
          "name": "_amount",
          "type": "uint256"
        }
      ],
      "name": "mint",
      "outputs": [],
      "stateMutability": "nonpayable",
      "type": "function"
    },
    {
      "inputs": [],
      "name": "name",
      "outputs": [
        {
          "internalType": "string",
          "name": "",
          "type": "string"
        }
      ],
      "stateMutability": "view",
      "type": "function"
    },
    {
      "inputs": [
        {
          "internalType": "address",
          "name": "",
          "type": "address"
        }
      ],
      "name": "nonces",
      "outputs": [
        {
          "internalType": "uint256",
          "name": "",
          "type": "uint256"
        }
      ],
      "stateMutability": "view",
      "type": "function"
    },
    {
      "inputs": [
        {
          "internalType": "address",
          "name": "",
          "type": "address"
        }
      ],
      "name": "numCheckpoints",
      "outputs": [
        {
          "internalType": "uint32",
          "name": "",
          "type": "uint32"
        }
      ],
      "stateMutability": "view",
      "type": "function"
    },
    {
      "inputs": [],
      "name": "owner",
      "outputs": [
        {
          "internalType": "address",
          "name": "",
          "type": "address"
        }
      ],
      "stateMutability": "view",
      "type": "function"
    },
    {
      "inputs": [],
      "name": "renounceOwnership",
      "outputs": [],
      "stateMutability": "nonpayable",
      "type": "function"
    },
    {
      "inputs": [],
      "name": "symbol",
      "outputs": [
        {
          "internalType": "string",
          "name": "",
          "type": "string"
        }
      ],
      "stateMutability": "view",
      "type": "function"
    },
    {
      "inputs": [],
      "name": "totalSupply",
      "outputs": [
        {
          "internalType": "uint256",
          "name": "",
          "type": "uint256"
        }
      ],
      "stateMutability": "view",
      "type": "function"
    },
    {
      "inputs": [
        {
          "internalType": "address",
          "name": "to",
          "type": "address"
        },
        {
          "internalType": "uint256",
          "name": "amount",
          "type": "uint256"
        }
      ],
      "name": "transfer",
      "outputs": [
        {
          "internalType": "bool",
          "name": "",
          "type": "bool"
        }
      ],
      "stateMutability": "nonpayable",
      "type": "function"
    },
    {
      "inputs": [
        {
          "internalType": "address",
          "name": "from",
          "type": "address"
        },
        {
          "internalType": "address",
          "name": "to",
          "type": "address"
        },
        {
          "internalType": "uint256",
          "name": "amount",
          "type": "uint256"
        }
      ],
      "name": "transferFrom",
      "outputs": [
        {
          "internalType": "bool",
          "name": "",
          "type": "bool"
        }
      ],
      "stateMutability": "nonpayable",
      "type": "function"
    },
    {
      "inputs": [
        {
          "internalType": "address",
          "name": "newOwner",
          "type": "address"
        }
      ],
      "name": "transferOwnership",
      "outputs": [],
      "stateMutability": "nonpayable",
      "type": "function"
    }
  ],
  "bytecode": "0x60806040526a52b7d2dcc80cd2e40000006006553480156200002057600080fd5b50604080518082018252600c81526b105c98d85b994814da59da5b60a21b60208083019182528351808501909452600584526414d251d25360da1b908401528151919291620000729160039162000101565b5080516200008890600490602084019062000101565b505050620000a56200009f620000ab60201b60201c565b620000af565b620001e4565b3390565b600580546001600160a01b038381166001600160a01b0319831681179093556040519116919082907f8be0079c531659141344cd1fd0a4f28419497f9722a3daafe3b4186f6b6457e090600090a35050565b8280546200010f90620001a7565b90600052602060002090601f0160209004810192826200013357600085556200017e565b82601f106200014e57805160ff19168380011785556200017e565b828001600101855582156200017e579182015b828111156200017e57825182559160200191906001019062000161565b506200018c92915062000190565b5090565b5b808211156200018c576000815560010162000191565b600281046001821680620001bc57607f821691505b60208210811415620001de57634e487b7160e01b600052602260045260246000fd5b50919050565b611cab80620001f46000396000f3fe608060405234801561001057600080fd5b50600436106101ae5760003560e01c8063782d6fe1116100ee578063b4b5ea5711610097578063dd62ed3e11610071578063dd62ed3e14610356578063e7a324dc14610369578063f1127ed814610371578063f2fde38b14610392576101ae565b8063b4b5ea5714610328578063c3cda5201461033b578063d5abeb011461034e576101ae565b806395d89b41116100c857806395d89b41146102fa578063a457c2d714610302578063a9059cbb14610315576101ae565b8063782d6fe1146102cc5780637ecebe00146102df5780638da5cb5b146102f2576101ae565b8063395093511161015b5780635c19a95c116101355780635c19a95c1461027e5780636fcfff451461029157806370a08231146102b1578063715018a6146102c4576101ae565b8063395093511461023657806340c10f1914610249578063587cde1e1461025e576101ae565b806320606b701161018c57806320606b701461020657806323b872dd1461020e578063313ce56714610221576101ae565b806306fdde03146101b3578063095ea7b3146101d157806318160ddd146101f1575b600080fd5b6101bb6103a5565b6040516101c89190611594565b60405180910390f35b6101e46101df36600461140b565b610437565b6040516101c8919061151a565b6101f961045b565b6040516101c89190611525565b6101f9610461565b6101e461021c3660046113d0565b610485565b6102296104b3565b6040516101c89190611b1b565b6101e461024436600461140b565b6104b8565b61025c61025736600461140b565b6104e4565b005b61027161026c366004611384565b610592565b6040516101c89190611506565b61025c61028c366004611384565b6105b3565b6102a461029f366004611384565b6105c0565b6040516101c89190611af4565b6101f96102bf366004611384565b6105d8565b61025c6105f3565b6101f96102da36600461140b565b61063e565b6101f96102ed366004611384565b610863565b610271610875565b6101bb610884565b6101e461031036600461140b565b610893565b6101e461032336600461140b565b6108db565b6101f9610336366004611384565b6108f3565b61025c610349366004611434565b610968565b6101f9610b43565b6101f961036436600461139e565b610b49565b6101f9610b74565b61038461037f366004611492565b610b98565b6040516101c8929190611b05565b61025c6103a0366004611384565b610bc5565b6060600380546103b490611bd4565b80601f01602080910402602001604051908101604052809291908181526020018280546103e090611bd4565b801561042d5780601f106104025761010080835404028352916020019161042d565b820191906000526020600020905b81548152906001019060200180831161041057829003601f168201915b5050505050905090565b600080610442610c33565b905061044f818585610c37565b60019150505b92915050565b60025490565b7f8cad95687ba82c2ce50e74f7b754645e5117c3a5bec8151c0726d5857980a86681565b600080610490610c33565b905061049d858285610ceb565b6104a8858585610d35565b506001949350505050565b601290565b6000806104c3610c33565b905061044f8185856104d58589610b49565b6104df9190611b29565b610c37565b6104ec610c33565b6001600160a01b03166104fd610875565b6001600160a01b03161461052c5760405162461bcd60e51b8152600401610523906117ef565b60405180910390fd5b6006546105418261053b61045b565b90610e59565b111561055f5760405162461bcd60e51b8152600401610523906119f5565b6105698282610e65565b6001600160a01b0380831660009081526007602052604081205461058e921683610f2d565b5050565b6001600160a01b03808216600090815260076020526040902054165b919050565b6105bd3382611091565b50565b60096020526000908152604090205463ffffffff1681565b6001600160a01b031660009081526020819052604090205490565b6105fb610c33565b6001600160a01b031661060c610875565b6001600160a01b0316146106325760405162461bcd60e51b8152600401610523906117ef565b61063c600061112d565b565b600043821061065f5760405162461bcd60e51b815260040161052390611998565b6001600160a01b03831660009081526009602052604090205463ffffffff168061068d576000915050610455565b6001600160a01b038416600090815260086020526040812084916106b2600185611baf565b63ffffffff9081168252602082019290925260400160002054161161071b576001600160a01b0384166000908152600860205260408120906106f5600184611baf565b63ffffffff1663ffffffff16815260200190815260200160002060010154915050610455565b6001600160a01b038416600090815260086020908152604080832083805290915290205463ffffffff16831015610756576000915050610455565b600080610764600184611baf565b90505b8163ffffffff168163ffffffff16111561082c57600060026107898484611baf565b6107939190611b69565b61079d9083611baf565b6001600160a01b038816600090815260086020908152604080832063ffffffff8086168552908352928190208151808301909252805490931680825260019093015491810191909152919250871415610800576020015194506104559350505050565b805163ffffffff1687111561081757819350610825565b610822600183611baf565b92505b5050610767565b506001600160a01b038516600090815260086020908152604080832063ffffffff9094168352929052206001015491505092915050565b600a6020526000908152604090205481565b6005546001600160a01b031690565b6060600480546103b490611bd4565b60008061089e610c33565b905060006108ac8286610b49565b9050838110156108ce5760405162461bcd60e51b815260040161052390611a52565b6104a88286868403610c37565b6000806108e6610c33565b905061044f818585610d35565b6001600160a01b03811660009081526009602052604081205463ffffffff168061091e576000610961565b6001600160a01b038316600090815260086020526040812090610942600184611baf565b63ffffffff1663ffffffff168152602001908152602001600020600101545b9392505050565b60007f8cad95687ba82c2ce50e74f7b754645e5117c3a5bec8151c0726d5857980a8666109936103a5565b805190602001206109a261118c565b306040516020016109b69493929190611552565b60405160208183030381529060405280519060200120905060007fe48329057bfd03d55e49b547132e39cffd9c1820ad7b9d4c5307691425d15adf888888604051602001610a07949392919061152e565b60405160208183030381529060405280519060200120905060008282604051602001610a349291906114d0565b604051602081830303815290604052805190602001209050600060018288888860405160008152602001604052604051610a719493929190611576565b6020604051602081039080840390855afa158015610a93573d6000803e3d6000fd5b5050604051601f1901519150506001600160a01b038116610ac65760405162461bcd60e51b815260040161052390611792565b6001600160a01b0381166000908152600a60205260408120805491610aea83611c0f565b919050558914610b0c5760405162461bcd60e51b8152600401610523906118de565b87421115610b2c5760405162461bcd60e51b815260040161052390611824565b610b36818b611091565b505050505b505050505050565b60065481565b6001600160a01b03918216600090815260016020908152604080832093909416825291909152205490565b7fe48329057bfd03d55e49b547132e39cffd9c1820ad7b9d4c5307691425d15adf81565b60086020908152600092835260408084209091529082529020805460019091015463ffffffff9091169082565b610bcd610c33565b6001600160a01b0316610bde610875565b6001600160a01b031614610c045760405162461bcd60e51b8152600401610523906117ef565b6001600160a01b038116610c2a5760405162461bcd60e51b815260040161052390611644565b6105bd8161112d565b3390565b6001600160a01b038316610c5d5760405162461bcd60e51b81526004016105239061193b565b6001600160a01b038216610c835760405162461bcd60e51b8152600401610523906116a1565b6001600160a01b0380841660008181526001602090815260408083209487168084529490915290819020849055517f8c5be1e5ebec7d5bd14f71427d1e84f3dd0314c0f7b2291e5b200ac8c7c3b92590610cde908590611525565b60405180910390a3505050565b6000610cf78484610b49565b90506000198114610d2f5781811015610d225760405162461bcd60e51b8152600401610523906116fe565b610d2f8484848403610c37565b50505050565b6001600160a01b038316610d5b5760405162461bcd60e51b815260040161052390611881565b6001600160a01b038216610d815760405162461bcd60e51b8152600401610523906115e7565b610d8c83838361108c565b6001600160a01b03831660009081526020819052604090205481811015610dc55760405162461bcd60e51b815260040161052390611735565b6001600160a01b03808516600090815260208190526040808220858503905591851681529081208054849290610dfc908490611b29565b92505081905550826001600160a01b0316846001600160a01b03167fddf252ad1be2c89b69c2b068fc378daa952ba7f163c4a11628f55a4df523b3ef84604051610e469190611525565b60405180910390a3610d2f84848461108c565b60006109618284611b29565b6001600160a01b038216610e8b5760405162461bcd60e51b815260040161052390611aaf565b610e976000838361108c565b8060026000828254610ea99190611b29565b90915550506001600160a01b03821660009081526020819052604081208054839290610ed6908490611b29565b90915550506040516001600160a01b038316906000907fddf252ad1be2c89b69c2b068fc378daa952ba7f163c4a11628f55a4df523b3ef90610f19908590611525565b60405180910390a361058e6000838361108c565b816001600160a01b0316836001600160a01b031614158015610f4f5750600081115b1561108c576001600160a01b03831615610ff2576001600160a01b03831660009081526009602052604081205463ffffffff169081610f8f576000610fd2565b6001600160a01b038516600090815260086020526040812090610fb3600185611baf565b63ffffffff1663ffffffff168152602001908152602001600020600101545b90506000610fe08285611190565b9050610fee8684848461119c565b5050505b6001600160a01b0382161561108c576001600160a01b03821660009081526009602052604081205463ffffffff16908161102d576000611070565b6001600160a01b038416600090815260086020526040812090611051600185611baf565b63ffffffff1663ffffffff168152602001908152602001600020600101545b9050600061107e8285610e59565b9050610b3b8584848461119c565b505050565b6001600160a01b03808316600090815260076020526040812054909116906110b8846105d8565b6001600160a01b03858116600081815260076020526040808220805473ffffffffffffffffffffffffffffffffffffffff1916898616908117909155905194955093928616927f3134e8a2e6d97e929a7e54011ea5485d7d196dd5f0ba4d4ef95803e8e3fc257f9190a4610d2f828483610f2d565b600580546001600160a01b0383811673ffffffffffffffffffffffffffffffffffffffff19831681179093556040519116919082907f8be0079c531659141344cd1fd0a4f28419497f9722a3daafe3b4186f6b6457e090600090a35050565b4690565b60006109618284611b98565b60006111c043604051806060016040528060358152602001611c416035913961133d565b905060008463ffffffff1611801561121a57506001600160a01b038516600090815260086020526040812063ffffffff8316916111fe600188611baf565b63ffffffff908116825260208201929092526040016000205416145b15611263576001600160a01b03851660009081526008602052604081208391611244600188611baf565b63ffffffff1681526020810191909152604001600020600101556112f3565b60408051808201825263ffffffff838116825260208083018681526001600160a01b038a166000908152600883528581208a851682529092529390209151825463ffffffff1916911617815590516001918201556112c2908590611b41565b6001600160a01b0386166000908152600960205260409020805463ffffffff191663ffffffff929092169190911790555b846001600160a01b03167fdec2bacdd2f05b59de34da9b523dff8be42e5e38e818c82fdb0bae774387a724848460405161132e929190611ae6565b60405180910390a25050505050565b60008164010000000084106113655760405162461bcd60e51b81526004016105239190611594565b509192915050565b80356001600160a01b03811681146105ae57600080fd5b600060208284031215611395578081fd5b6109618261136d565b600080604083850312156113b0578081fd5b6113b98361136d565b91506113c76020840161136d565b90509250929050565b6000806000606084860312156113e4578081fd5b6113ed8461136d565b92506113fb6020850161136d565b9150604084013590509250925092565b6000806040838503121561141d578182fd5b6114268361136d565b946020939093013593505050565b60008060008060008060c0878903121561144c578182fd5b6114558761136d565b95506020870135945060408701359350606087013560ff81168114611478578283fd5b9598949750929560808101359460a0909101359350915050565b600080604083850312156114a4578182fd5b6114ad8361136d565b9150602083013563ffffffff811681146114c5578182fd5b809150509250929050565b7f190100000000000000000000000000000000000000000000000000000000000081526002810192909252602282015260420190565b6001600160a01b0391909116815260200190565b901515815260200190565b90815260200190565b9384526001600160a01b039290921660208401526040830152606082015260800190565b938452602084019290925260408301526001600160a01b0316606082015260800190565b93845260ff9290921660208401526040830152606082015260800190565b6000602080835283518082850152825b818110156115c0578581018301518582016040015282016115a4565b818111156115d15783604083870101525b50601f01601f1916929092016040019392505050565b60208082526023908201527f45524332303a207472616e7366657220746f20746865207a65726f206164647260408201527f6573730000000000000000000000000000000000000000000000000000000000606082015260800190565b60208082526026908201527f4f776e61626c653a206e6577206f776e657220697320746865207a65726f206160408201527f6464726573730000000000000000000000000000000000000000000000000000606082015260800190565b60208082526022908201527f45524332303a20617070726f766520746f20746865207a65726f20616464726560408201527f7373000000000000000000000000000000000000000000000000000000000000606082015260800190565b6020808252601d908201527f45524332303a20696e73756666696369656e7420616c6c6f77616e6365000000604082015260600190565b60208082526026908201527f45524332303a207472616e7366657220616d6f756e742065786365656473206260408201527f616c616e63650000000000000000000000000000000000000000000000000000606082015260800190565b60208082526027908201527f536967696c3a3a64656c656761746542795369673a20696e76616c696420736960408201527f676e617475726500000000000000000000000000000000000000000000000000606082015260800190565b6020808252818101527f4f776e61626c653a2063616c6c6572206973206e6f7420746865206f776e6572604082015260600190565b60208082526027908201527f536967696c3a3a64656c656761746542795369673a207369676e61747572652060408201527f6578706972656400000000000000000000000000000000000000000000000000606082015260800190565b60208082526025908201527f45524332303a207472616e736665722066726f6d20746865207a65726f20616460408201527f6472657373000000000000000000000000000000000000000000000000000000606082015260800190565b60208082526023908201527f536967696c3a3a64656c656761746542795369673a20696e76616c6964206e6f60408201527f6e63650000000000000000000000000000000000000000000000000000000000606082015260800190565b60208082526024908201527f45524332303a20617070726f76652066726f6d20746865207a65726f2061646460408201527f7265737300000000000000000000000000000000000000000000000000000000606082015260800190565b60208082526028908201527f536967696c3a3a6765745072696f72566f7465733a206e6f742079657420646560408201527f7465726d696e6564000000000000000000000000000000000000000000000000606082015260800190565b60208082526025908201527f536967696c3a3a6d696e743a2063616e6e6f7420657863656564206d6178207360408201527f7570706c79000000000000000000000000000000000000000000000000000000606082015260800190565b60208082526025908201527f45524332303a2064656372656173656420616c6c6f77616e63652062656c6f7760408201527f207a65726f000000000000000000000000000000000000000000000000000000606082015260800190565b6020808252601f908201527f45524332303a206d696e7420746f20746865207a65726f206164647265737300604082015260600190565b918252602082015260400190565b63ffffffff91909116815260200190565b63ffffffff929092168252602082015260400190565b60ff91909116815260200190565b60008219821115611b3c57611b3c611c2a565b500190565b600063ffffffff808316818516808303821115611b6057611b60611c2a565b01949350505050565b600063ffffffff80841680611b8c57634e487b7160e01b83526012600452602483fd5b92169190910492915050565b600082821015611baa57611baa611c2a565b500390565b600063ffffffff83811690831681811015611bcc57611bcc611c2a565b039392505050565b600281046001821680611be857607f821691505b60208210811415611c0957634e487b7160e01b600052602260045260246000fd5b50919050565b6000600019821415611c2357611c23611c2a565b5060010190565b634e487b7160e01b600052601160045260246000fdfe536967696c3a3a5f7772697465436865636b706f696e743a20626c6f636b206e756d62657220657863656564732033322062697473a2646970667358221220c2b8983af4f312cccd026b1c639e8f7bb4b123af49122f24ea6da373821fe7c064736f6c63430008000033",
  "linkReferences": {},
  "deployedLinkReferences": {}
}