{
  "_format": "hh-sol-artifact-1",
  "contractName": "SigilMath",
  "sourceName": "contracts/utils/SigilMath.sol",
  "abi": [
    {
      "inputs": [
        {
          "internalType": "uint256",
          "name": "min",
          "type": "uint256"
        },
        {
          "internalType": "uint256",
          "name": "max",
          "type": "uint256"
        }
      ],
      "name": "getPercent",
      "outputs": [
        {
          "internalType": "uint256",
          "name": "",
          "type": "uint256"
        }
      ],
      "stateMutability": "pure",
      "type": "function"
    }
  ],
  "bytecode": "0x61017761003a600b82828239805160001a60731461002d57634e487b7160e01b600052600060045260246000fd5b30600052607381538281f3fe73000000000000000000000000000000000000000030146080604052600436106100355760003560e01c8063622198661461003a575b600080fd5b61004d6100483660046100b0565b61005f565b60405190815260200160405180910390f35b6000610085600a610079600561007f8683896103e861008c565b90610098565b906100a4565b9392505050565b600061008582846100e8565b60006100858284610107565b60006100858284610129565b600080604083850312156100c357600080fd5b50508035926020909101359150565b634e487b7160e01b600052601160045260246000fd5b6000816000190483118215151615610102576101026100d2565b500290565b60008261012457634e487b7160e01b600052601260045260246000fd5b500490565b6000821982111561013c5761013c6100d2565b50019056fea2646970667358221220041eb7ae253c42c856f4afd42d313244a529bafca039f85697e80b3286c80e3e64736f6c63430008090033",
  "linkReferences": {},
  "deployedLinkReferences": {}
}